:100000000C942A000C943F000C943F000C943F0089
:100010000C943F000C943F000C943F000C943F0064
:100020000C943F000C943F000C943F000C943F0054
:100030000C943F000C943F000C943F000C943F0044
:100040000C943F000C943F000C943F000C943F0034
:100050000C943F0011241FBECFE5D8E0DEBFCDBF1A
:1000600010E0A0E6B0E0ECE5F3E102C005900D92EF
:10007000A43AB107D9F70E9441000C94AC090C9442
:1000800000000F931F93DF93CF93CDB7DEB72A976E
:100090000FB6F894DEBF0FBECDBF0E94860100D020
:1000A00000D000D0EDB7FEB731968E010F5F1F4F25
:1000B000ADB7BEB712961C930E93119780E690E0F1
:1000C0009383828388EC90E0958384830E94D40696
:1000D0008DB79EB706960FB6F8949EBF0FBE8DBF24
:1000E000C8010E94F200FFCFEF92FF920F931F937F
:1000F000182F81E061E040E00E94DD0580E060EFC4
:10010000412F0E94AF0681E063E041E00E94DD05DF
:1001100005E0802F8A95F1F781E063E040E00E94DE
:10012000DD0580E4E82E8FE1F82EC7010197F1F795
:100130001295107F80E060EF412F0E94AF0681E0B2
:1001400063E041E00E94DD050A95F1F781E063E09C
:1001500040E00E94DD05C7010197F1F71F910F9163
:10016000FF90EF900895EF92FF920F931F93182F37
:1001700081E061E041E00E94DD0580E060EF412F19
:100180000E94AF0681E063E041E00E94DD0505E0EA
:10019000802F8A95F1F781E063E040E00E94DD0561
:1001A00090E4E92E9FE1F92EC7010197F1F712952E
:1001B000107F80E060EF412F0E94AF0681E063E096
:1001C00041E00E94DD050A95F1F781E063E040E03F
:1001D0000E94DD05C7010197F1F71F910F91FF9074
:1001E000EF900895EF92FF920F931F93CF93DF93B9
:1001F000EC011881112309F43AC005E020E4E22E55
:100200002FE1F22E81E061E041E00E94DD0580E017
:1002100060EF412F0E94AF0681E063E041E00E9461
:10022000DD05802F8A95F1F781E063E040E00E94D0
:10023000DD05C7010197F1F71295107F80E060EFAF
:10024000412F0E94AF0681E063E041E00E94DD059E
:10025000802F8A95F1F781E063E040E00E94DD05A0
:10026000C7010197F1F721961881112359F6DF9103
:10027000CF911F910F91FF90EF900895EF92FF9211
:100280000F931F93882309F03CC0162F105881E06C
:1002900061E040E00E94DD0580E060EF412F0E94B8
:1002A000AF0681E063E041E00E94DD0505E0802FBC
:1002B0008A95F1F781E063E040E00E94DD0530E4DB
:1002C000E32E3FE1F32EC7010197F1F71295107F5E
:1002D00080E060EF412F0E94AF0681E063E041E0E3
:1002E0000E94DD050A95F1F781E063E040E00E949D
:1002F000DD05C7010197F1F71F910F91FF90EF9076
:1003000008958130C9F7162F1054C1CF9F92AF9234
:10031000BF92CF92DF92EF92FF920F931F93CF93F2
:10032000DF9381E061E041E00E946F0581E062E0DF
:1003300041E00E946F0581E063E041E00E946F05AB
:1003400080E064E041E00E946F0580E065E041E00C
:100350000E946F0580E066E041E00E946F0580E04A
:1003600067E041E00E946F0581E062E040E00E94AA
:10037000DD0580E69AEE0197F1F781E061E040E06B
:100380000E94DD0580E060EF43E00E94AF0681E05F
:1003900063E041E00E94DD05E5E0FE2E8F2D8A95A9
:1003A000F1F781E063E040E00E94DD0500E41FE139
:1003B000C8010197F1F780E060EF40E30E94AF06CB
:1003C00081E063E041E00E94DD058F2D8A95F1F721
:1003D00081E063E040E00E94DD05C8010197F1F78C
:1003E00080E29EE40197F1F781E061E040E00E9445
:1003F000DD0580E060EF43E00E94AF0681E063E04E
:1004000041E00E94DD058F2D8A95F1F781E063E0E0
:1004100040E00E94DD05C8010197F1F780E060EF40
:1004200040E30E94AF0681E063E041E00E94DD0509
:100430008F2D8A95F1F781E063E040E00E94DD05B1
:10044000C8010197F1F780E991E00197F1F781E0A8
:1004500061E040E00E94DD0580E060EF43E00E9443
:10046000AF0681E063E041E00E94DD058F2D8A95B3
:10047000F1F781E063E040E00E94DD05C8010197EB
:10048000F1F780E060EF40E30E94AF0681E063E0B7
:1004900041E00E94DD058F2D8A95F1F781E063E050
:1004A00040E00E94DD05C8010197F1F781E061E0BD
:1004B00040E00E94DD0580E060EF42E00E94AF0670
:1004C00081E063E041E00E94DD058F2D8A95F1F720
:1004D00081E063E040E00E94DD05C8010197F1F78B
:1004E00080E060EF40E20E94AF0681E063E041E01F
:1004F0000E94DD058F2D8A95F1F781E063E040E0F1
:100500000E94DD05C8010197F1F781E061E040E05C
:100510000E94DD0580E060EF42E00E94AF0681E0CE
:1005200063E041E00E94DD058F2D8A95F1F781E0BF
:1005300063E040E00E94DD05C8010197F1F780E02B
:1005400060EF40E20E94AF0681E063E041E00E947C
:10055000DD05FA94F1F781E063E040E00E94DD05FB
:10056000C8010197F1F773E6E72E70E0F72E60E41B
:10057000C62ED12C05E0C0E4DFE11C2D81E061E056
:1005800040E00E94DD0580E060EF4C2D0E94AF0648
:1005900081E063E041E00E94DD0555E0952E802F6B
:1005A0008A95F1F781E063E040E00E94DD0540E4D8
:1005B000A42E4FE1B42ECE010197F1F71295107FD2
:1005C00080E060EF412F0E94AF0681E063E041E0F0
:1005D0000E94DD05802F8A95F1F781E063E040E01D
:1005E0000E94DD05CE010197F1F7F701108181E04E
:1005F00061E041E00E94DD0580E060EF412F0E9454
:10060000AF0681E063E041E00E94DD05802F8A951E
:10061000F1F781E063E040E00E94DD05CE01019743
:10062000F1F71295107F80E060EF412F0E94AF0636
:1006300081E063E041E00E94DD05802F8A95F1F7BB
:1006400081E063E040E00E94DD05CE010197F1F713
:10065000F701118181E061E041E00E94DD0580E069
:1006600060EF412F0E94AF0681E063E041E00E940D
:10067000DD05802F8A95F1F781E063E040E00E947C
:10068000DD05CE010197F1F71295107F80E060EF54
:10069000412F0E94AF0681E063E041E00E94DD054A
:1006A000802F8A95F1F781E063E040E00E94DD054C
:1006B000CE010197F1F7F701128181E061E041E09D
:1006C0000E94DD0580E060EF412F0E94AF0681E0CF
:1006D00063E041E00E94DD05802F8A95F1F781E01B
:1006E00063E040E00E94DD05CE010197F1F712952D
:1006F000107F80E060EF412F0E94AF0681E063E051
:1007000041E00E94DD05802F8A95F1F781E063E0EA
:1007100040E00E94DD05CE010197F1F7F70113815A
:1007200081E061E041E00E94DD0580E060EF412F63
:100730000E94AF0681E063E041E00E94DD05802F6A
:100740008A95F1F781E063E040E00E94DD05CE018B
:100750000197F1F71295107F80E060EF412F0E9422
:10076000AF0681E063E041E00E94DD05802F8A95BD
:10077000F1F781E063E040E00E94DD05CE010197E2
:10078000F1F7F701148181E061E041E00E94DD05AD
:1007900080E060EF412F0E94AF0681E063E041E01E
:1007A0000E94DD05802F8A95F1F781E063E040E04B
:1007B0000E94DD05CE010197F1F71295107F80E0D0
:1007C00060EF412F0E94AF0681E063E041E00E94AC
:1007D000DD05802F8A95F1F781E063E040E00E941B
:1007E000DD05CE010197F1F7F701158181E061E0A8
:1007F00041E00E94DD0580E060EF412F0E94AF06DE
:1008000081E063E041E00E94DD05802F8A95F1F7E9
:1008100081E063E040E00E94DD05CE010197F1F741
:100820001295107F80E060EF412F0E94AF0681E0BB
:1008300063E041E00E94DD05802F8A95F1F781E0B9
:1008400063E040E00E94DD05CE010197F1F7F7017A
:10085000168181E061E041E00E94DD0580E060EF0B
:10086000412F0E94AF0681E063E041E00E94DD0578
:10087000802F8A95F1F781E063E040E00E94DD057A
:10088000CE010197F1F71295107F80E060EF412FC4
:100890000E94AF0681E063E041E00E94DD05802F09
:1008A0008A95F1F781E063E040E00E94DD05CE012A
:1008B0000197F1F7F701178181E061E041E00E94C3
:1008C000DD0580E060EF412F0E94AF0681E063E02C
:1008D00041E00E94DD05802F8A95F1F781E063E019
:1008E00040E00E94DD05CE010197F1F71295107FDF
:1008F00080E060EF412F0E94AF0681E063E041E0BD
:100900000E94DD05802F8A95F1F781E063E040E0E9
:100910000E94DD05CE010197F1F788E090E0C80E56
:10092000D91EE80EF91E90E8C916D10409F025CEAB
:1009300081E061E040E00E94DD0580E060EF40E89A
:100940000E94AF0681E063E041E00E94DD05892D51
:100950008A95F1F781E063E040E00E94DD05C50182
:100960000197F1F780E060EF40E00E94AF0681E080
:1009700063E041E00E94DD05892D8A95F1F781E071
:1009800063E040E00E94DD05C5010197F1F7DF91CA
:10099000CF911F910F91FF90EF90DF90CF90BF907C
:1009A000AF909F900895813089F0813028F0823097
:1009B000B1F090E0892F089581E060E00E94810607
:1009C00090E08130B9F791E0892F089581E064E0EB
:1009D0000E94810690E08130B1F3892F089583E071
:1009E00062E00E94810690E0813069F3892F0895CA
:1009F00081E060E040E00E946F0581E064E040E05B
:100A00000E946F0583E062E040E00E946F05089558
:100A1000813079F0813028F482E062E00E944C0657
:100A20000895823009F0089583E063E00E944C0647
:100A3000089582E067E00E944C060895813089F0B5
:100A4000813030F482E062E040E00E94DD050895EC
:100A5000823009F0089583E063E040E00E94DD0504
:100A6000089582E067E040E00E94DD05089581304E
:100A700089F0813030F482E062E041E00E94DD05DF
:100A80000895823009F0089583E063E041E00E9418
:100A9000DD05089582E067E041E00E94DD050895EC
:100AA00082E062E041E00E946F0582E067E041E0A1
:100AB0000E946F0583E063E041E00E946F0582E0E1
:100AC00062E040E00E94DD0582E067E040E00E94D5
:100AD000DD0583E063E040E00E94DD05089581309C
:100AE00019F1813028F0823069F1833079F008956E
:100AF0004423B1F52AB381E090E002C0880F991F2A
:100B00006A95E2F7809582238ABB0895442309F40D
:100B100048C021B381E090E002C0880F991F6A9518
:100B2000E2F7282B21BB0895442381F527B381E008
:100B300090E002C0880F991F6A95E2F780958223A2
:100B400087BB08954423B9F424B381E090E002C048
:100B5000880F991F6A95E2F78095822384BB0895D8
:100B60002AB381E090E002C0880F991F6A95E2F7EE
:100B7000282B2ABB089524B381E090E002C0880F9F
:100B8000991F6A95E2F7282B24BB089527B381E0CB
:100B900090E002C0880F991F6A95E2F7282B27BBC7
:100BA000089521B381E090E002C0880F991F6A95F3
:100BB000E2F78095822381BB0895813029F181304D
:100BC00028F0823079F1833081F00895413009F4C2
:100BD0004DC02BB381E090E002C0880F991F6A9549
:100BE000E2F7809582238BBB0895413009F449C018
:100BF00022B381E090E002C0880F991F6A95E2F766
:100C00008095822382BB0895413029F128B381E089
:100C100090E002C0880F991F6A95E2F780958223C1
:100C200088BB0895413061F025B381E090E002C0B7
:100C3000880F991F6A95E2F78095822385BB0895F6
:100C400025B381E090E002C0880F991F6A95E2F712
:100C5000282B25BB089528B381E090E002C0880FBF
:100C6000991F6A95E2F7282B28BB08952BB381E0E2
:100C700090E002C0880F991F6A95E2F7282B2BBBE2
:100C8000089522B381E090E002C0880F991F6A9511
:100C9000E2F7282B22BB08958130E9F0813028F05B
:100CA000823021F1833061F008952BB381E090E030
:100CB00002C0880F991F6A95E2F728272BBB089579
:100CC00022B381E090E002C0880F991F6A95E2F795
:100CD000282722BB089528B381E090E002C0880F46
:100CE000991F6A95E2F7282728BB089525B381E06C
:100CF00090E002C0880F991F6A95E2F7282725BB6C
:100D000008958130D1F0813030F08230F9F08330B5
:100D100059F080E0089589B390E002C095958795D9
:100D20006A95E2F78170089580B390E002C09595CE
:100D300087956A95E2F78170089586B390E002C0C6
:100D4000959587956A95E2F78170089583B390E051
:100D500002C0959587956A95E2F781700895813074
:100D6000A9F0813028F08230C1F0833041F008953D
:100D70008BB3462360958623842B8BBB089582B367
:100D8000462360958623842B82BB089588B346232F
:100D900060958623842B88BB089585B34623609590
:100DA0008623842B85BB0895AEE0B0E0EAEDF6E043
:100DB0000C9483090D891E8986E08C831A8309832C
:100DC0008FEF9FE79E838D839E01275E3F4FCE016D
:100DD00001966F89788DA9010E94F8062F813885C8
:100DE000020F131FF80110822E96E4E00C949F0965
:100DF000ABE0B0E0EEEFF6E00C9475093C012B019E
:100E00005A01FC0117821682838181FD03C06FEFB6
:100E10007FEFC6C19AE0892E1E010894211C311C67
:100E2000F3012381F20123FD859123FF81912F019D
:100E3000882309F4B2C1853239F423FD859123FF5B
:100E400081912F01853229F490E0B3010E94EB08D3
:100E5000E7CF982FFF24EE249924FFE1FF15D0F06F
:100E60009B3269F09C3228F4903259F0933291F41D
:100E70000EC09D3249F0903369F441E024C052E045
:100E8000F52A84E0F82A28C098E0F92A25C0E0E194
:100E9000FE2A22C0F7FC29C0892F80538A3070F4C3
:100EA000F6FE05C0989C902C1124980E15C0E89C65
:100EB000E02C1124E80EF0E2FF2A0EC09E3229F445
:100EC000F6FC6BC140E4F42A07C09C3619F450E8E4
:100ED000F52A02C0983649F4F20123FD959123FFCB
:100EE00091912F01992309F0B8CF892F8554833030
:100EF00018F08052833038F444E050E0A40EB51E60
:100F00005FE359830FC0933631F0933779F093350F
:100F100009F056C020C0F5018081898342E050E08D
:100F2000A40EB51E610101E010E012C0F501C08001
:100F3000D180F6FC03C06FEF7FEF02C0692D70E037
:100F400042E050E0A40EB51EC6010E94E0088C01EC
:100F50005FE7F52214C0F501C080D180F6FC03C024
:100F60006FEF7FEF02C0692D70E042E050E0A40E09
:100F7000B51EC6010E94D5088C0150E8F52AF3FE83
:100F800007C01AC080E290E0B3010E94EB08EA9427
:100F90008E2D90E008171907A8F30EC0F601F7FC94
:100FA0008591F7FE81916F0190E0B3010E94EB08FB
:100FB000E110EA94015010400115110579F7EAC0DB
:100FC000943611F0993669F5F7FE08C0F5012081D5
:100FD00031814281538184E090E00AC0F501808133
:100FE00091819C01442737FD4095542F82E090E089
:100FF000A80EB91E9FE6F92257FF09C050954095EB
:10100000309521953F4F4F4F5F4FE0E8FE2ACA01D0
:10101000B901A1012AE030E00E941709D82ED218A8
:1010200040C0953729F41F2D1F7E2AE030E01DC0F7
:101030001F2D197F9F3661F0903720F4983509F005
:10104000ACC00FC0903739F0983709F0A6C004C083
:1010500028E030E00AC0106114FD146020E130E0A7
:1010600004C014FD166020E132E017FF08C0F5014E
:10107000608171818281938144E050E008C0F50174
:1010800080819181BC0180E090E042E050E0A40EBC
:10109000B51EA1010E941709D82ED2188FE7F82E8D
:1010A000F122F6FE0BC05EEFF522D91438F4F4FEFF
:1010B00007C0F2FC05C08FEEF82202C01D2D01C052
:1010C000192DF4FE0DC0FE01ED0DF11D8081803360
:1010D00019F499EEF92208C01F5FF2FE05C003C0A3
:1010E0008F2D867809F01F5F0F2DF3FC14C0F0FEE2
:1010F0000FC01E1510F09D2C0BC09D2C9E0C911A3C
:101100001E2D06C080E290E0B3010E94EB081F5F35
:101110001E15C0F304C01E1510F4E11A01C0EE2420
:1011200004FF0FC080E390E0B3010E94EB0802FFD0
:101130001DC001FD03C088E790E00EC088E590E087
:101140000BC0802F867891F001FF02C08BE201C0B6
:1011500080E2F7FC8DE290E0B3010E94EB0806C04C
:1011600080E390E0B3010E94EB089A94D914C0F395
:10117000DA94F101ED0DF11D808190E0B3010E9440
:10118000EB08DD20A9F706C080E290E0B3010E94E1
:10119000EB08EA94EE20C1F743CEF3016681778134
:1011A000CB012B96E2E10C949109FC010590615072
:1011B00070400110D8F7809590958E0F9F1F08956D
:1011C000FC016150704001900110D8F78095909516
:1011D0008E0F9F1F08950F931F93CF93DF938C0162
:1011E000EB018B8181FF1BC082FF0DC02E813F81EF
:1011F0008C819D812817390764F4E881F981019376
:10120000F983E88306C0E885F985802F0995892B45
:1012100031F48E819F8101969F838E8302C00FEFF0
:101220001FEFC801DF91CF911F910F910895FA012F
:10123000AA27283051F1203181F1E8946F936E7F15
:101240006E5F7F4F8F4F9F4FAF4FB1E03ED0B4E006
:101250003CD0670F781F891F9A1FA11D680F791F47
:101260008A1F911DA11D6A0F711D811D911DA11D58
:1012700020D009F468943F912AE0269F1124301968
:10128000305D3193DEF6CF010895462F4770405D03
:101290004193B3E00FD0C9F7F6CF462F4F70405DB2
:1012A0004A3318F0495D31FD4052419302D0A9F70D
:1012B000EACFB4E0A6959795879577956795BA9507
:1012C000C9F700976105710508959B01AC010A2ECD
:1012D00006945795479537952795BA95C9F7620FA4
:1012E000731F841F951FA01D08952F923F924F9248
:1012F0005F926F927F928F929F92AF92BF92CF92A6
:10130000DF92EF92FF920F931F93CF93DF93CDB7AE
:10131000DEB7CA1BDB0B0FB6F894DEBF0FBECDBF26
:1013200009942A88398848885F846E847D848C84F7
:101330009B84AA84B984C884DF80EE80FD800C8100
:101340001B81AA81B981CE0FD11D0FB6F894DEBFE3
:0C1350000FBECDBFED010895F894FFCF53
:10135C002564000A1F1F1F1F0E0400041F1111110A
:10136C0011111F041F111111111F1F041F11111135
:10137C001F1F1F041F11111F1F1F1F041F111F1FD1
:10138C001F1F1F041F1F1F1F1F1F1F000001010510
:04139C00051515001E
:00000001FF
