:100000000C942A000C943F000C943F000C943F0089
:100010000C943F000C943F000C943F000C943F0064
:100020000C943F000C943F000C943F000C943F0054
:100030000C943F000C943F000C943F000C943F0044
:100040000C943F000C943F000C943F000C943F0034
:100050000C943F0011241FBECFE5D8E0DEBFCDBF1A
:1000600010E0A0E6B0E0E2E9FFE002C005900D92EA
:10007000A03AB107D9F70E9441000C94C7070C942D
:1000800000001F93CF93DF930E94B1000E94DF0511
:1000900010E0C0E4DCE980E00E94BA05813069F03C
:1000A00082E00E94BA058130C1F0812F0E94750064
:1000B00080E00E94BA05813099F7812F4AEF50E025
:1000C00060E070E00E94DF001F5F14364CF310E028
:1000D00082E00E94BA05813041F7CE010197F1F725
:1000E000115018F710E080E0E1CF0F93CF93DF932A
:1000F000082F843690F581E061E041E00E94C4065B
:1001000081E062E040E00E94C406802F6AE00E9425
:10011000BB079295907F80E060EF492F0E94960781
:10012000C0EADFE0CE010197F1F781E061E040E055
:100130000E94C40681E062E041E00E94C406802F74
:100140006AE00E94BB07482F4295407F80E060EF45
:100150000E949607CE010197F1F7DF91CF910F91A1
:10016000089581E061E041E00E94560681E062E08E
:1001700041E00E94560681E063E041E00E9456069D
:1001800080E064E041E00E94560680E065E041E0E6
:100190000E94560680E066E041E00E94560680E03C
:1001A00067E041E00E94560681E061E040E00E9485
:1001B000C40681E062E040E00E94C40608958F9288
:1001C0009F92AF92BF92CF92DF92EF92FF920F93E6
:1001D0001F93CF93DF93282F5A016B0141155105CF
:1001E0006105710509F16AE00E94BB07892E8294BE
:1001F00090EF8922822F0E94BB07982E929480EF65
:1002000098222436F0F080E090E0A0E0B0E020EA10
:100210003FE0F9013197F1F70396A11DB11D8A1551
:100220009B05AC05BD05A8F3DF91CF911F910F9100
:10023000FF90EF90DF90CF90BF90AF909F908F9006
:100240000895EE24FF248701C0EADFE081E061E049
:1002500041E00E94C40681E062E040E00E94C406E2
:1002600080E060EF482D0E949607CE010197F1F7DC
:1002700081E061E040E00E94C40681E062E041E08C
:100280000E94C40680E060EF492D0E949607CE01CF
:100290000197F1F7CE010197F1F783E090E0A0E03C
:1002A000B0E0E80EF91E0A1F1B1FEA14FB040C0540
:1002B0001D0560F2B9CFEF92FF920F931F93182F95
:1002C00081E061E040E00E94C40680E060EF412FE1
:1002D0000E94960781E063E041E00E94C40605E0C9
:1002E000802F8A95F1F781E063E040E00E94C40628
:1002F00080E4E82E8FE1F82EC7010197F1F71295FF
:10030000107F80E060EF412F0E94960781E063E05C
:1003100041E00E94C4060A95F1F781E063E040E005
:100320000E94C406C7010197F1F71F910F91FF903A
:10033000EF900895EF92FF920F931F93182F81E093
:1003400061E041E00E94C40680E060EF412F0E941E
:10035000960781E063E041E00E94C40605E0802F3B
:100360008A95F1F781E063E040E00E94C40690E4E2
:10037000E92E9FE1F92EC7010197F1F71295107F41
:1003800080E060EF412F0E94960781E063E041E04A
:100390000E94C4060A95F1F781E063E040E00E9404
:1003A000C406C7010197F1F71F910F91FF90EF90DD
:1003B0000895EF92FF920F931F93CF93DF93EC0179
:1003C0001881112309F43AC005E020E4E22E2FE160
:1003D000F22E81E061E041E00E94C40680E060EF1F
:1003E000412F0E94960781E063E041E00E94C4062D
:1003F000802F8A95F1F781E063E040E00E94C40617
:10040000C7010197F1F71295107F80E060EF412F4F
:100410000E94960781E063E041E00E94C406802FBD
:100420008A95F1F781E063E040E00E94C406C701CD
:100430000197F1F721961881112359F6DF91CF9199
:100440001F910F91FF90EF900895EF92FF920F93FD
:100450001F93882309F03CC0162F105881E061E0FB
:1004600040E00E94C40680E060EF412F0E949607A2
:1004700081E063E041E00E94C40605E0802F8A9598
:10048000F1F781E063E040E00E94C40630E4E32E2F
:100490003FE1F32EC7010197F1F71295107F80E03D
:1004A00060EF412F0E94960781E063E041E00E94E7
:1004B000C4060A95F1F781E063E040E00E94C406BB
:1004C000C7010197F1F71F910F91FF90EF900895E9
:1004D0008130C9F7162F1054C1CF9F92AF92BF92AF
:1004E000CF92DF92EF92FF920F931F93CF93DF9300
:1004F00081E061E041E00E94560681E062E041E077
:100500000E94560681E063E041E00E94560680E0CA
:1005100064E041E00E94560680E065E041E00E9410
:10052000560680E066E041E00E94560680E067E003
:1005300041E00E94560681E062E040E00E94C4066D
:1005400080E69AEE0197F1F781E061E040E00E94D9
:10055000C40680E060EF43E00E94960781E063E01C
:1005600041E00E94C406E5E0FE2E8F2D8A95F1F74A
:1005700081E063E040E00E94C40600E41FE1C8019E
:100580000197F1F780E060EF40E30E94960781E079
:1005900063E041E00E94C4068F2D8A95F1F781E067
:1005A00063E040E00E94C406C8010197F1F780E2D1
:1005B0009EE40197F1F781E061E040E00E94C4060B
:1005C00080E060EF43E00E94960781E063E041E055
:1005D0000E94C4068F2D8A95F1F781E063E040E028
:1005E0000E94C406C8010197F1F780E060EF40E384
:1005F0000E94960781E063E041E00E94C4068F2DCF
:100600008A95F1F781E063E040E00E94C406C801EA
:100610000197F1F780E991E00197F1F781E061E05E
:1006200040E00E94C40680E060EF43E00E9496072D
:1006300081E063E041E00E94C4068F2D8A95F1F7C6
:1006400081E063E040E00E94C406C8010197F1F731
:1006500080E060EF40E30E94960781E063E041E0C4
:100660000E94C4068F2D8A95F1F781E063E040E097
:100670000E94C406C8010197F1F781E061E040E003
:100680000E94C40680E060EF42E00E94960781E08D
:1006900063E041E00E94C4068F2D8A95F1F781E066
:1006A00063E040E00E94C406C8010197F1F780E0D2
:1006B00060EF40E20E94960781E063E041E00E9423
:1006C000C4068F2D8A95F1F781E063E040E00E9437
:1006D000C406C8010197F1F781E061E040E00E94A3
:1006E000C40680E060EF42E00E94960781E063E08C
:1006F00041E00E94C4068F2D8A95F1F781E063E006
:1007000040E00E94C406C8010197F1F780E060EF65
:1007100040E20E94960781E063E041E00E94C40647
:10072000FA94F1F781E063E040E00E94C406C8015A
:100730000197F1F770E6E72E70E0F72E60E4C62E21
:10074000D12C05E0C0E4DFE11C2D81E061E040E058
:100750000E94C40680E060EF4C2D0E94960781E065
:1007600063E041E00E94C40655E0952E802F8A95F3
:10077000F1F781E063E040E00E94C40640E4A42E6B
:100780004FE1B42ECE010197F1F71295107F80E072
:1007900060EF412F0E94960781E063E041E00E94F4
:1007A000C406802F8A95F1F781E063E040E00E9463
:1007B000C406CE010197F1F7F701108181E061E0F5
:1007C00041E00E94C40680E060EF412F0E9496073E
:1007D00081E063E041E00E94C406802F8A95F1F732
:1007E00081E063E040E00E94C406CE010197F1F78A
:1007F0001295107F80E060EF412F0E94960781E004
:1008000063E041E00E94C406802F8A95F1F781E001
:1008100063E040E00E94C406CE010197F1F7F701C2
:10082000118181E061E041E00E94C40680E060EF58
:10083000412F0E94960781E063E041E00E94C406D8
:10084000802F8A95F1F781E063E040E00E94C406C2
:10085000CE010197F1F71295107F80E060EF412FF4
:100860000E94960781E063E041E00E94C406802F69
:100870008A95F1F781E063E040E00E94C406CE0172
:100880000197F1F7F701128181E061E041E00E94F8
:10089000C40680E060EF412F0E94960781E063E08C
:1008A00041E00E94C406802F8A95F1F781E063E061
:1008B00040E00E94C406CE010197F1F71295107F27
:1008C00080E060EF412F0E94960781E063E041E005
:1008D0000E94C406802F8A95F1F781E063E040E032
:1008E0000E94C406CE010197F1F7F701138181E060
:1008F00061E041E00E94C40680E060EF412F0E9469
:10090000960781E063E041E00E94C406802F8A954B
:10091000F1F781E063E040E00E94C406CE01019758
:10092000F1F71295107F80E060EF412F0E9496074B
:1009300081E063E041E00E94C406802F8A95F1F7D0
:1009400081E063E040E00E94C406CE010197F1F728
:10095000F701148181E061E041E00E94C40680E07B
:1009600060EF412F0E94960781E063E041E00E9422
:10097000C406802F8A95F1F781E063E040E00E9491
:10098000C406CE010197F1F71295107F80E060EF69
:10099000412F0E94960781E063E041E00E94C40677
:1009A000802F8A95F1F781E063E040E00E94C40661
:1009B000CE010197F1F7F701158181E061E041E097
:1009C0000E94C40680E060EF412F0E94960781E0FC
:1009D00063E041E00E94C406802F8A95F1F781E030
:1009E00063E040E00E94C406CE010197F1F7129542
:1009F000107F80E060EF412F0E94960781E063E066
:100A000041E00E94C406802F8A95F1F781E063E0FF
:100A100040E00E94C406CE010197F1F7F70116816C
:100A200081E061E041E00E94C40680E060EF412F78
:100A30000E94960781E063E041E00E94C406802F97
:100A40008A95F1F781E063E040E00E94C406CE01A0
:100A50000197F1F71295107F80E060EF412F0E941F
:100A6000960781E063E041E00E94C406802F8A95EA
:100A7000F1F781E063E040E00E94C406CE010197F7
:100A8000F1F7F701178181E061E041E00E94C406BF
:100A900080E060EF412F0E94960781E063E041E033
:100AA0000E94C406802F8A95F1F781E063E040E060
:100AB0000E94C406CE010197F1F71295107F80E0E5
:100AC00060EF412F0E94960781E063E041E00E94C1
:100AD000C406802F8A95F1F781E063E040E00E9430
:100AE000C406CE010197F1F788E090E0C80ED91E48
:100AF000E80EF91E90E8C916D10409F025CE81E070
:100B000061E040E00E94C40680E060EF40E80E949F
:100B1000960781E063E041E00E94C406892D8A9532
:100B2000F1F781E063E040E00E94C406C50101974F
:100B3000F1F780E060EF40E00E94960781E063E01B
:100B400041E00E94C406892D8A95F1F781E063E0B7
:100B500040E00E94C406C5010197F1F7DF91CF91F3
:100B60001F910F91FF90EF90DF90CF90BF90AF90CB
:100B70009F900895813089F0813028F08230B1F063
:100B800090E0892F089581E060E00E94680790E07E
:100B90008130B9F791E0892F089581E064E00E94E7
:100BA000680790E08130B1F3892F089583E062E017
:100BB0000E94680790E0813069F3892F089581E0F1
:100BC00060E040E00E94560681E064E040E00E9460
:100BD000560683E062E040E00E94560608958130A8
:100BE00079F0813028F482E062E00E9433070895B2
:100BF000823009F0089583E063E00E94330708958E
:100C000082E067E00E9433070895813089F08130E7
:100C100030F482E062E040E00E94C4060895823031
:100C200009F0089583E063E040E00E94C40608955F
:100C300082E067E040E00E94C4060895813089F0B8
:100C4000813030F482E062E041E00E94C406089501
:100C5000823009F0089583E063E041E00E94C40619
:100C6000089582E067E041E00E94C406089582E0B2
:100C700062E041E00E94560682E067E041E00E94A7
:100C8000560683E063E041E00E94560682E062E09F
:100C900040E00E94C40682E067E040E00E94C40693
:100CA00083E063E040E00E94C4060895813019F1BA
:100CB000813028F0823069F1833079F0089544233F
:100CC000B1F52AB381E090E002C0880F991F6A95C0
:100CD000E2F7809582238ABB0895442309F448C033
:100CE00021B381E090E002C0880F991F6A95E2F776
:100CF000282B21BB0895442381F527B381E090E0A0
:100D000002C0880F991F6A95E2F78095822387BBFE
:100D100008954423B9F424B381E090E002C0880F21
:100D2000991F6A95E2F78095822384BB08952AB3C0
:100D300081E090E002C0880F991F6A95E2F7282BA6
:100D40002ABB089524B381E090E002C0880F991F68
:100D50006A95E2F7282B24BB089527B381E090E041
:100D600002C0880F991F6A95E2F7282B27BB0895C8
:100D700021B381E090E002C0880F991F6A95E2F7E5
:100D80008095822381BB0895813029F1813028F03C
:100D9000823079F1833081F00895413009F44DC0FB
:100DA0002BB381E090E002C0880F991F6A95E2F7AB
:100DB000809582238BBB0895413009F449C022B34A
:100DC00081E090E002C0880F991F6A95E2F7809554
:100DD000822382BB0895413029F128B381E090E05D
:100DE00002C0880F991F6A95E2F78095822388BB1D
:100DF0000895413061F025B381E090E002C0880F92
:100E0000991F6A95E2F78095822385BB089525B3E3
:100E100081E090E002C0880F991F6A95E2F7282BC5
:100E200025BB089528B381E090E002C0880F991F88
:100E30006A95E2F7282B28BB08952BB381E090E058
:100E400002C0880F991F6A95E2F7282B2BBB0895E3
:100E500022B381E090E002C0880F991F6A95E2F703
:100E6000282B22BB08958130E9F0813028F08230B0
:100E700021F1833061F008952BB381E090E002C04E
:100E8000880F991F6A95E2F728272BBB089522B394
:100E900081E090E002C0880F991F6A95E2F7282749
:100EA00022BB089528B381E090E002C0880F991F0B
:100EB0006A95E2F7282728BB089525B381E090E0E2
:100EC00002C0880F991F6A95E2F7282725BB08956D
:100ED0008130D1F0813030F08230F9F0833059F038
:100EE00080E0089589B390E002C0959587956A9552
:100EF000E2F78170089580B390E002C095958795E0
:100F00006A95E2F78170089586B390E002C09595E6
:100F100087956A95E2F78170089583B390E002C0E7
:100F2000959587956A95E2F7817008958130A9F0CB
:100F3000813028F08230C1F0833041F008958BB3C6
:100F4000462360958623842B8BBB089582B346236A
:100F500060958623842B82BB089588B346236095D1
:100F60008623842B88BB089585B34623609586230A
:100F7000842B85BB0895991B79E004C0991F9617AF
:100F800008F0961B881F7A95C9F780950895F89404
:020F9000FFCF91
:100F92000A1F1F1F1F0E0400041F11111111111F20
:100FA200041F111111111F1F041F1111111F1F1FE7
:100FB200041F11111F1F1F1F041F111F1F1F1F1F9F
:100FC200041F1F1F1F1F1F1F00000101050515150C
:00000001FF
