:100000000C942A000C943F000C943F000C943F0089
:100010000C943F000C943F000C943F000C943F0064
:100020000C943F000C943F000C943F000C943F0054
:100030000C943F000C943F000C943F000C943F0044
:100040000C943F000C943F000C943F000C943F0034
:100050000C943F0011241FBECFE5D8E0DEBFCDBF1A
:1000600010E0A0E6B0E0EEEEF9E102C005900D92DE
:10007000A23CB107D9F70E9441000C94F50C0C94F6
:100080000000AF92BF92CF92DF92EF92FF920F9358
:100090001F93DF93CF9300D000D0CDB7DEB70E947F
:1000A00062080E9479048CE00E94670380E690E079
:1000B0000E94E5036E010894C11CD11C9EE6A92E86
:1000C00090E0B92E80E9E82E81E0F82E81E00E94D0
:1000D00066088C0180E068E00E94310489E690E0C7
:1000E0000E94E50380E068E00E94310400D000D067
:1000F00000D0EDB7FEB73196ADB7BEB71296DC9221
:10010000CE921197B382A282158304830E941D0AA6
:100110008DB79EB706960FB6F8949EBF0FBE8DBFE3
:10012000C6010E94E50320E030E0C7010197F1F726
:100130002F5F3F4F93E128383907B9F7C7CF82E0E7
:1001400060E040E00E94770882E061E040E00E94C9
:10015000770882E062E040E00E94770882E063E096
:1001600040E00E94770882E060E00E94DC0982E0C3
:1001700061E00E94DC0982E062E00E94DC0982E02A
:1001800063E00E94DC0982E064E041E00E947708BD
:1001900082E065E041E00E94770882E066E041E0AD
:1001A0000E94770882E067E041E00E94770882E0E1
:1001B00064E040E00E94E50882E065E040E00E94E3
:1001C000E50882E066E040E00E94E50882E067E042
:1001D00040E00E94E50808951F93CF93DF9382E0EB
:1001E00060E040E00E94770882E061E040E00E9429
:1001F000770882E062E040E00E94770882E063E0F6
:1002000040E00E94770882E060E00E94DC0982E022
:1002100061E00E94DC0982E062E00E94DC0982E089
:1002200063E00E94DC0982E064E041E00E9477081C
:1002300082E065E041E00E94770882E066E041E00C
:100240000E94770882E067E041E00E94770882E040
:1002500064E040E00E94E50882E065E040E00E9442
:10026000E50882E066E040E00E94E50882E067E0A1
:1002700040E00E94E50882E060E00E94890988234E
:1002800009F085C082E060E00E948909882309F0B6
:1002900095C010E0C0E0D0E082E064E040E00E9461
:1002A000E50882E065E041E00E94E50882E066E062
:1002B00041E00E94E50882E067E041E00E94E50835
:1002C00082E060E00E948909882309F081C0181744
:1002D00009F486C082E064E041E00E94E50882E023
:1002E00065E040E00E94E50882E066E041E00E94AF
:1002F000E50882E067E041E00E94E50882E060E016
:100300000E948909882309F098C0181709F49DC034
:1003100082E064E041E00E94E50882E065E041E0BF
:100320000E94E50882E066E040E00E94E50882E085
:1003300067E041E00E94E50882E060E00E948909F0
:10034000882309F06FC0181709F474C082E064E0D4
:1003500041E00E94E50882E065E041E00E94E50896
:1003600082E066E041E00E94E50882E067E040E06C
:100370000E94E50882E060E00E948909882309F074
:100380006FC0181709F084C083E090E02BC082E0B2
:1003900061E00E948909882309F474CF82E062E059
:1003A0000E948909882309F46DCF82E063E00E94EE
:1003B0008909882309F466CF8FEF1DC082E061E0D0
:1003C0000E9489098823D9F411E0C1E0D0E064CF0C
:1003D00082E061E00E9489098823E1F481E077CF1F
:1003E00080E090E0CC0FDD1FCC0FDD1FC80FD91FC0
:1003F000CF58DF4F8881DF91CF911F91089582E020
:1004000062E00E948909882309F04DC012E0C2E031
:10041000D0E042CF82E062E00E9489098823D9F5CA
:1004200082E055CF82E061E00E948909882301F5CE
:1004300081E089CF82E090E0D5CF82E061E00E9448
:100440008909882329F481E060CF81E090E0CACF58
:1004500082E062E00E948909882379F582E055CF25
:1004600082E061E00E948909882351F481E089CF0C
:1004700082E062E00E948909882339F582E063CF37
:1004800082E062E00E948909882379F582E079CFD1
:100490008FEF9FEFA7CF82E063E00E948909882356
:1004A00001F583E014CF82E063E00E94890988238C
:1004B000A1F413E0C3E0D0E0EFCE82E063E00E945D
:1004C0008909882381F483E020CF82E063E00E94E1
:1004D0008909882391F483E036CF1FEFCFEFDFEF58
:1004E000DBCE8FEFF4CE8FEF10CF82E063E00E947F
:1004F0008909882321F483E044CF8FEF24CF8FEF45
:1005000040CF0F93CF93DF93082F843690F581E08F
:1005100061E041E00E94E50881E062E040E00E9485
:10052000E508802F6AE00E94110A9295907F80E092
:1005300060EF492F0E94B709C0EADFE0CE010197C2
:10054000F1F781E061E040E00E94E50881E062E0CF
:1005500041E00E94E508802F6AE00E94110A482FBE
:100560004295407F80E060EF0E94B709CE0101977D
:10057000F1F7DF91CF910F91089581E061E041E0C3
:100580000E94770881E062E041E00E94770881E004
:1005900063E041E00E94770880E064E041E00E946F
:1005A000770880E065E041E00E94770880E066E03F
:1005B00041E00E94770880E067E041E00E94770810
:1005C00081E061E040E00E94E50881E062E040E017
:1005D0000E94E50808958F929F92AF92BF92CF92AA
:1005E000DF92EF92FF920F931F93CF93DF93282F09
:1005F0005A016B01411551056105710509F16AE068
:100600000E94110A892E829490EF8922822F0E94E3
:10061000110A982E929480EF98222436F0F080E010
:1006200090E0A0E0B0E020EA3FE0F9013197F1F777
:100630000396A11DB11D8A159B05AC05BD05A8F348
:10064000DF91CF911F910F91FF90EF90DF90CF90AE
:10065000BF90AF909F908F900895EE24FF24870164
:10066000C0EADFE081E061E041E00E94E50881E06E
:1006700062E040E00E94E50880E060EF482D0E94C3
:10068000B709CE010197F1F781E061E040E00E94F7
:10069000E50881E062E041E00E94E50880E060EF6B
:1006A000492D0E94B709CE010197F1F7CE010197BC
:1006B000F1F783E090E0A0E0B0E0E80EF91E0A1F39
:1006C0001B1FEA14FB040C051D0560F2B9CFEF9265
:1006D000FF920F931F93182F81E061E040E00E948A
:1006E000E50880E060EF412F0E94B70981E063E0F8
:1006F00041E00E94E50805E0802F8A95F1F781E04E
:1007000063E040E00E94E50880E4E82E8FE1F82EE7
:10071000C7010197F1F71295107F80E060EF412F3C
:100720000E94B70981E063E041E00E94E5080A9574
:10073000F1F781E063E040E00E94E508C70101971E
:10074000F1F71F910F91FF90EF900895EF92FF92B4
:100750000F931F93182F81E061E041E00E94E508AC
:1007600080E060EF412F0E94B70981E063E041E043
:100770000E94E50805E0802F8A95F1F781E063E0AB
:1007800040E00E94E50890E4E92E9FE1F92EC701C0
:100790000197F1F71295107F80E060EF412F0E94E2
:1007A000B70981E063E041E00E94E5080A95F1F7AE
:1007B00081E063E040E00E94E508C7010197F1F79E
:1007C0001F910F91FF90EF900895EF92FF920F937A
:1007D0001F93CF93DF93EC011881112309F43AC0E2
:1007E00005E020E4E22E2FE1F22E81E061E041E01D
:1007F0000E94E50880E060EF412F0E94B70981E088
:1008000063E041E00E94E508802F8A95F1F781E0DE
:1008100063E040E00E94E508C7010197F1F71295F7
:10082000107F80E060EF412F0E94B70981E063E014
:1008300041E00E94E508802F8A95F1F781E063E0AE
:1008400040E00E94E508C7010197F1F72196188161
:10085000112359F6DF91CF911F910F91FF90EF90E7
:100860000895EF92FF920F931F93882309F03CC0E5
:10087000162F105881E061E040E00E94E50880E01A
:1008800060EF412F0E94B70981E063E041E00E94E0
:10089000E50805E0802F8A95F1F781E063E040E00C
:1008A0000E94E50830E4E32E3FE1F32EC7010197F3
:1008B000F1F71295107F80E060EF412F0E94B70999
:1008C00081E063E041E00E94E5080A95F1F781E0EC
:1008D00063E040E00E94E508C7010197F1F71F912E
:1008E0000F91FF90EF9008958130C9F7162F1054A3
:1008F000C1CF9F92AF92BF92CF92DF92EF92FF92C1
:100900000F931F93CF93DF9381E061E041E00E945A
:10091000770881E062E041E00E94770881E063E0CF
:1009200041E00E94770880E064E041E00E9477089F
:1009300080E065E041E00E94770880E066E041E009
:100940000E94770880E067E041E00E94770881E03C
:1009500062E040E00E94E50880E69AEE0197F1F738
:1009600081E061E040E00E94E50880E060EF43E064
:100970000E94B70981E063E041E00E94E508E5E0FC
:10098000FE2E8F2D8A95F1F781E063E040E00E9412
:10099000E50800E41FE1C8010197F1F780E060EF8E
:1009A00040E30E94B70981E063E041E00E94E5086E
:1009B0008F2D8A95F1F781E063E040E00E94E50821
:1009C000C8010197F1F780E29EE40197F1F781E019
:1009D00061E040E00E94E50880E060EF43E00E94B3
:1009E000B70981E063E041E00E94E5088F2D8A9518
:1009F000F1F781E063E040E00E94E508C80101975B
:100A0000F1F780E060EF40E30E94B70981E063E026
:100A100041E00E94E5088F2D8A95F1F781E063E0BF
:100A200040E00E94E508C8010197F1F780E991E0F4
:100A30000197F1F781E061E040E00E94E50880E085
:100A400060EF43E00E94B70981E063E041E00E946B
:100A5000E5088F2D8A95F1F781E063E040E00E9480
:100A6000E508C8010197F1F780E060EF40E30E94DC
:100A7000B70981E063E041E00E94E5088F2D8A9587
:100A8000F1F781E063E040E00E94E508C8010197CA
:100A9000F1F781E061E040E00E94E50880E060EF6E
:100AA00042E00E94B70981E063E041E00E94E5086E
:100AB0008F2D8A95F1F781E063E040E00E94E50820
:100AC000C8010197F1F780E060EF40E20E94B709AA
:100AD00081E063E041E00E94E5088F2D8A95F1F7FF
:100AE00081E063E040E00E94E508C8010197F1F76A
:100AF00081E061E040E00E94E50880E060EF42E0D4
:100B00000E94B70981E063E041E00E94E5088F2D73
:100B10008A95F1F781E063E040E00E94E508C801B2
:100B20000197F1F780E060EF40E20E94B70981E0B1
:100B300063E041E00E94E508FA94F1F781E063E0A8
:100B400040E00E94E508C8010197F1F771E8E72E3F
:100B500070E0F72E60E4C62ED12C05E0C0E4DFE1A2
:100B60001C2D81E061E040E00E94E50880E060EF3C
:100B70004C2D0E94B70981E063E041E00E94E50846
:100B800055E0952E802F8A95F1F781E063E040E0F3
:100B90000E94E50840E4A42E4FE1B42ECE01019757
:100BA000F1F71295107F80E060EF412F0E94B709A6
:100BB00081E063E041E00E94E508802F8A95F1F72B
:100BC00081E063E040E00E94E508CE010197F1F783
:100BD000F701108181E061E041E00E94E50880E0DA
:100BE00060EF412F0E94B70981E063E041E00E947D
:100BF000E508802F8A95F1F781E063E040E00E94EC
:100C0000E508CE010197F1F71295107F80E060EFC3
:100C1000412F0E94B70981E063E041E00E94E508AE
:100C2000802F8A95F1F781E063E040E00E94E508BB
:100C3000CE010197F1F7F701118181E061E041E018
:100C40000E94E50880E060EF412F0E94B70981E033
:100C500063E041E00E94E508802F8A95F1F781E08A
:100C600063E040E00E94E508CE010197F1F712959C
:100C7000107F80E060EF412F0E94B70981E063E0C0
:100C800041E00E94E508802F8A95F1F781E063E05A
:100C900040E00E94E508CE010197F1F7F7011281CB
:100CA00081E061E041E00E94E50880E060EF412FD3
:100CB0000E94B70981E063E041E00E94E508802FCF
:100CC0008A95F1F781E063E040E00E94E508CE01FB
:100CD0000197F1F71295107F80E060EF412F0E949D
:100CE000B70981E063E041E00E94E508802F8A9522
:100CF000F1F781E063E040E00E94E508CE01019752
:100D0000F1F7F701138181E061E041E00E94E5081D
:100D100080E060EF412F0E94B70981E063E041E08D
:100D20000E94E508802F8A95F1F781E063E040E0BA
:100D30000E94E508CE010197F1F71295107F80E03F
:100D400060EF412F0E94B70981E063E041E00E941B
:100D5000E508802F8A95F1F781E063E040E00E948A
:100D6000E508CE010197F1F7F701148181E061E018
:100D700041E00E94E50880E060EF412F0E94B70942
:100D800081E063E041E00E94E508802F8A95F1F759
:100D900081E063E040E00E94E508CE010197F1F7B1
:100DA0001295107F80E060EF412F0E94B70981E02B
:100DB00063E041E00E94E508802F8A95F1F781E029
:100DC00063E040E00E94E508CE010197F1F7F701EA
:100DD000158181E061E041E00E94E50880E060EF7C
:100DE000412F0E94B70981E063E041E00E94E508DD
:100DF000802F8A95F1F781E063E040E00E94E508EA
:100E0000CE010197F1F71295107F80E060EF412F3E
:100E10000E94B70981E063E041E00E94E508802F6D
:100E20008A95F1F781E063E040E00E94E508CE0199
:100E30000197F1F7F701168181E061E041E00E943E
:100E4000E50880E060EF412F0E94B70981E063E090
:100E500041E00E94E508802F8A95F1F781E063E088
:100E600040E00E94E508CE010197F1F71295107F4E
:100E700080E060EF412F0E94B70981E063E041E02C
:100E80000E94E508802F8A95F1F781E063E040E059
:100E90000E94E508CE010197F1F7F701178181E083
:100EA00061E041E00E94E50880E060EF412F0E9490
:100EB000B70981E063E041E00E94E508802F8A9550
:100EC000F1F781E063E040E00E94E508CE01019780
:100ED000F1F71295107F80E060EF412F0E94B70973
:100EE00081E063E041E00E94E508802F8A95F1F7F8
:100EF00081E063E040E00E94E508CE010197F1F750
:100F000088E090E0C80ED91EE80EF91E90E8C916D8
:100F1000D10409F025CE81E061E040E00E94E508BF
:100F200080E060EF40E80E94B70981E063E041E0C3
:100F30000E94E508892D8A95F1F781E063E040E0A1
:100F40000E94E508C5010197F1F780E060EF40E0FD
:100F50000E94B70981E063E041E00E94E508892D25
:100F60008A95F1F781E063E040E00E94E508C50161
:100F70000197F1F7DF91CF911F910F91FF90EF90C3
:100F8000DF90CF90BF90AF909F900895813089F00F
:100F9000813028F08230B1F090E0892F089581E00F
:100FA00060E00E94890990E08130B9F791E0892FD3
:100FB000089581E064E00E94890990E08130B1F3F6
:100FC000892F089583E062E00E94890990E08130D2
:100FD00069F3892F089581E060E040E00E9477087E
:100FE00081E064E040E00E94770883E062E040E056
:100FF0000E9477080895813079F0813028F482E0EA
:1010000062E00E9454090895823009F0089583E057
:1010100063E00E945409089582E067E00E94540949
:101020000895813089F0813030F482E062E040E060
:101030000E94E5080895823009F0089583E063E096
:1010400040E00E94E508089582E067E040E00E94E9
:10105000E5080895813089F0813030F482E062E063
:1010600041E00E94E5080895823009F0089583E088
:1010700063E041E00E94E508089582E067E041E016
:101080000E94E508089582E062E041E00E9477084E
:1010900082E067E041E00E94770883E063E041E09E
:1010A0000E94770882E062E040E00E94E50882E06A
:1010B00067E040E00E94E50883E063E040E00E94D2
:1010C000E50808953E9A87E886B9089597B1987F14
:1010D000982B97B9369A349BFECF349A24B145B1F8
:1010E000942F80E030E0282B392BC90108958130FE
:1010F00019F1813028F0823069F1833079F0089558
:101100004423B1F52AB381E090E002C0880F991F13
:101110006A95E2F7809582238ABB0895442309F4F7
:1011200048C021B381E090E002C0880F991F6A9502
:10113000E2F7282B21BB0895442381F527B381E0F2
:1011400090E002C0880F991F6A95E2F7809582238C
:1011500087BB08954423B9F424B381E090E002C032
:10116000880F991F6A95E2F78095822384BB0895C2
:101170002AB381E090E002C0880F991F6A95E2F7D8
:10118000282B2ABB089524B381E090E002C0880F89
:10119000991F6A95E2F7282B24BB089527B381E0B5
:1011A00090E002C0880F991F6A95E2F7282B27BBB1
:1011B000089521B381E090E002C0880F991F6A95DD
:1011C000E2F78095822381BB0895813029F1813037
:1011D00028F0823079F1833081F00895413009F4AC
:1011E0004DC02BB381E090E002C0880F991F6A9533
:1011F000E2F7809582238BBB0895413009F449C002
:1012000022B381E090E002C0880F991F6A95E2F74F
:101210008095822382BB0895413029F128B381E073
:1012200090E002C0880F991F6A95E2F780958223AB
:1012300088BB0895413061F025B381E090E002C0A1
:10124000880F991F6A95E2F78095822385BB0895E0
:1012500025B381E090E002C0880F991F6A95E2F7FC
:10126000282B25BB089528B381E090E002C0880FA9
:10127000991F6A95E2F7282B28BB08952BB381E0CC
:1012800090E002C0880F991F6A95E2F7282B2BBBCC
:10129000089522B381E090E002C0880F991F6A95FB
:1012A000E2F7282B22BB08958130E9F0813028F045
:1012B000823021F1833061F008952BB381E090E01A
:1012C00002C0880F991F6A95E2F728272BBB089563
:1012D00022B381E090E002C0880F991F6A95E2F77F
:1012E000282722BB089528B381E090E002C0880F30
:1012F000991F6A95E2F7282728BB089525B381E056
:1013000090E002C0880F991F6A95E2F7282725BB55
:1013100008958130D1F0813030F08230F9F083309F
:1013200059F080E0089589B390E002C095958795C3
:101330006A95E2F78170089580B390E002C09595B8
:1013400087956A95E2F78170089586B390E002C0B0
:10135000959587956A95E2F78170089583B390E03B
:1013600002C0959587956A95E2F78170089581305E
:10137000A9F0813028F08230C1F0833041F0089527
:101380008BB3462360958623842B8BBB089582B351
:10139000462360958623842B82BB089588B3462319
:1013A00060958623842B88BB089585B3462360957A
:1013B0008623842B85BB08958130E9F0813028F0A5
:1013C000823021F1833061F008952BB381E090E009
:1013D00002C0880F991F6A95E2F7282B2BBB08954E
:1013E00022B381E090E002C0880F991F6A95E2F76E
:1013F000282B22BB089528B381E090E002C0880F1B
:10140000991F6A95E2F7282B28BB089525B381E040
:1014100090E002C0880F991F6A95E2F7282B25BB40
:101420000895991B79E004C0991F961708F0961B40
:10143000881F7A95C9F780950895AEE0B0E0E3E2A1
:10144000FAE00C94CC0C0D891E8986E08C831A83FB
:1014500009838FEF9FE79E838D839E01275E3F4F19
:10146000CE0101966F89788DA9010E94410A2F81D2
:101470003885020F131FF80110822E96E4E00C94B9
:10148000E80CABE0B0E0E7E4FAE00C94BE0C3C0101
:101490002B015A01FC0117821682838181FD03C052
:1014A0006FEF7FEFC6C19AE0892E1E010894211CC0
:1014B000311CF3012381F20123FD859123FF8191EA
:1014C0002F01882309F4B2C1853239F423FD8591B7
:1014D00023FF81912F01853229F490E0B3010E940E
:1014E000340CE7CF982FFF24EE249924FFE1FF1559
:1014F000D0F09B3269F09C3228F4903259F093324C
:1015000091F40EC09D3249F0903369F441E024C05B
:1015100052E0F52A84E0F82A28C098E0F92A25C08C
:10152000E0E1FE2A22C0F7FC29C0892F80538A30CF
:1015300070F4F6FE05C0989C902C1124980E15C0EE
:10154000E89CE02C1124E80EF0E2FF2A0EC09E3247
:1015500029F4F6FC6BC140E4F42A07C09C3619F468
:1015600050E8F52A02C0983649F4F20123FD95911E
:1015700023FF91912F01992309F0B8CF892F85542A
:10158000833018F08052833038F444E050E0A40EE9
:10159000B51E5FE359830FC0933631F0933779F06E
:1015A000933509F056C020C0F5018081898342E05F
:1015B00050E0A40EB51E610101E010E012C0F5017B
:1015C000C080D180F6FC03C06FEF7FEF02C0692DB1
:1015D00070E042E050E0A40EB51EC6010E94290C46
:1015E0008C015FE7F52214C0F501C080D180F6FCC4
:1015F00003C06FEF7FEF02C0692D70E042E050E062
:10160000A40EB51EC6010E941E0C8C0150E8F52ADE
:10161000F3FE07C01AC080E290E0B3010E94340CD0
:10162000EA948E2D90E008171907A8F30EC0F60172
:10163000F7FC8591F7FE81916F0190E0B3010E9464
:10164000340CE110EA94015010400115110579F7AE
:10165000EAC0943611F0993669F5F7FE08C0F50135
:10166000208131814281538184E090E00AC0F501FC
:10167000808191819C01442737FD4095542F82E061
:1016800090E0A80EB91E9FE6F92257FF09C05095B9
:101690004095309521953F4F4F4F5F4FE0E8FE2A30
:1016A000CA01B901A1012AE030E00E94600CD82EE5
:1016B000D21840C0953729F41F2D1F7E2AE030E054
:1016C0001DC01F2D197F9F3661F0903720F498358B
:1016D00009F0ACC00FC0903739F0983709F0A6C0B8
:1016E00004C028E030E00AC0106114FD146020E15D
:1016F00030E004C014FD166020E132E017FF08C09E
:10170000F501608171818281938144E050E008C0DD
:10171000F50180819181BC0180E090E042E050E0E1
:10172000A40EB51EA1010E94600CD82ED2188FE71E
:10173000F82EF122F6FE0BC05EEFF522D91438F434
:10174000F4FE07C0F2FC05C08FEEF82202C01D2D8A
:1017500001C0192DF4FE0DC0FE01ED0DF11D8081BB
:10176000803319F499EEF92208C01F5FF2FE05C01C
:1017700003C08F2D867809F01F5F0F2DF3FC14C076
:10178000F0FE0FC01E1510F09D2C0BC09D2C9E0C62
:10179000911A1E2D06C080E290E0B3010E94340C25
:1017A0001F5F1E15C0F304C01E1510F4E11A01C01E
:1017B000EE2404FF0FC080E390E0B3010E94340CDC
:1017C00002FF1DC001FD03C088E790E00EC088E560
:1017D00090E00BC0802F867891F001FF02C08BE271
:1017E00001C080E2F7FC8DE290E0B3010E94340C6E
:1017F00006C080E390E0B3010E94340C9A94D9149F
:10180000C0F3DA94F101ED0DF11D808190E0B30198
:101810000E94340CDD20A9F706C080E290E0B301FD
:101820000E94340CEA94EE20C1F743CEF3016681A6
:101830007781CB012B96E2E10C94DA0CFC01059048
:10184000615070400110D8F7809590958E0F9F1FC2
:101850000895FC016150704001900110D8F7809507
:1018600090958E0F9F1F08950F931F93CF93DF9333
:101870008C01EB018B8181FF1BC082FF0DC02E818B
:101880003F818C819D812817390764F4E881F981B3
:101890000193F983E88306C0E885F985802F0995CF
:1018A000892B31F48E819F8101969F838E8302C0A4
:1018B0000FEF1FEFC801DF91CF911F910F91089596
:1018C000FA01AA27283051F1203181F1E8946F9371
:1018D0006E7F6E5F7F4F8F4F9F4FAF4FB1E03ED017
:1018E000B4E03CD0670F781F891F9A1FA11D680FB5
:1018F000791F8A1F911DA11D6A0F711D811D911DE8
:10190000A11D20D009F468943F912AE0269F11245C
:101910003019305D3193DEF6CF010895462F4770C0
:10192000405D4193B3E00FD0C9F7F6CF462F4F701B
:10193000405D4A3318F0495D31FD4052419302D079
:10194000A9F7EACFB4E0A69597958795779567951F
:10195000BA95C9F700976105710508959B01AC011F
:101960000A2E06945795479537952795BA95C9F746
:10197000620F731F841F951FA01D08952F923F9221
:101980004F925F926F927F928F929F92AF92BF928F
:10199000CF92DF92EF92FF920F931F93CF93DF933B
:1019A000CDB7DEB7CA1BDB0B0FB6F894DEBF0FBE98
:1019B000CDBF09942A88398848885F846E847D84E5
:1019C0008C849B84AA84B984C884DF80EE80FD80E7
:1019D0000C811B81AA81B981CE0FD11D0FB6F8945D
:0E19E000DEBF0FBECDBFED010895F894FFCF1E
:1019EE00526573756C743D20002020202000256404
:1019FE000031323341343536423738394353305063
:101A0E00440A1F1F1F1F0E0400041F111111111174
:101A1E001F041F111111111F1F041F1111111F1F60
:101A2E001F041F11111F1F1F1F041F111F1F1F1F18
:101A3E001F041F1F1F1F1F1F1F000001010505157B
:021A4E00150081
:00000001FF
