:100000000C942A000C9434000C9434000C943400AA
:100010000C9434000C9434000C9434000C94340090
:100020000C9434000C9434000C9434000C94340080
:100030000C9434000C9434000C9434000C94340070
:100040000C9434000C9434000C9434000C94340060
:100050000C94340011241FBECFE5D8E0DEBFCDBF25
:100060000E9497020C94B4020C940000813089F035
:10007000813028F08230B1F090E0892F089581E03E
:1000800060E00E947D0190E08130B9F791E0892F16
:10009000089581E064E00E947D0190E08130B1F339
:1000A000892F089583E062E00E947D0190E0813015
:1000B00069F3892F089581E060E040E00E946B00C1
:1000C00081E064E040E00E946B0083E062E040E099
:1000D0000E946B000895813019F1813028F0823040
:1000E00069F1833079F008954423B1F52AB381E0B2
:1000F00090E002C0880F991F6A95E2F780958223ED
:100100008ABB0895442309F448C021B381E090E0FC
:1001100002C0880F991F6A95E2F7282B21BB08952A
:10012000442381F527B381E090E002C0880F991F36
:100130006A95E2F78095822387BB08954423B9F43A
:1001400024B381E090E002C0880F991F6A95E2F71E
:100150008095822384BB08952AB381E090E002C099
:10016000880F991F6A95E2F7282B2ABB089524B3BC
:1001700081E090E002C0880F991F6A95E2F7282B72
:1001800024BB089527B381E090E002C0880F991F37
:100190006A95E2F7282B27BB089521B381E090E010
:1001A00002C0880F991F6A95E2F78095822381BB70
:1001B0000895813029F1813028F0823079F183303F
:1001C00081F00895413009F44DC02BB381E090E0F7
:1001D00002C0880F991F6A95E2F7809582238BBB36
:1001E0000895413009F449C022B381E090E002C093
:1001F000880F991F6A95E2F78095822382BB089544
:10020000413029F128B381E090E002C0880F991FA6
:100210006A95E2F78095822388BB0895413061F0AA
:1002200025B381E090E002C0880F991F6A95E2F73C
:100230008095822385BB089525B381E090E002C0BC
:10024000880F991F6A95E2F7282B25BB089528B3DC
:1002500081E090E002C0880F991F6A95E2F7282B91
:1002600028BB08952BB381E090E002C0880F991F4E
:100270006A95E2F7282B2BBB089522B381E090E02A
:1002800002C0880F991F6A95E2F7282B22BB0895B8
:100290008130E9F0813028F0823021F1833061F043
:1002A00008952BB381E090E002C0880F991F6A95F2
:1002B000E2F728272BBB089522B381E090E002C02B
:1002C000880F991F6A95E2F7282722BB089528B363
:1002D00081E090E002C0880F991F6A95E2F7282715
:1002E00028BB089525B381E090E002C0880F991FD4
:1002F0006A95E2F7282725BB08958130D1F0813037
:1003000030F08230F9F0833059F080E0089589B3FD
:1003100090E002C0959587956A95E2F781700895FF
:1003200080B390E002C0959587956A95E2F7817059
:10033000089586B390E002C0959587956A95E2F797
:100340008170089583B390E002C0959587956A9572
:10035000E2F7817008958130A9F0813028F0823071
:10036000C1F0833041F008958BB346236095862316
:10037000842B8BBB089582B3462360958623842B00
:1003800082BB089588B3462360958623842B88BB5F
:10039000089585B3462360958623842B85BB0895F5
:1003A000089581E063E041E00E94D90085E08A95EC
:1003B000F1F781E063E040E00E94D90008951F93C7
:1003C000182F81E061E041E00E94D90080E060EFF9
:1003D000412F0E94AB010E94D1011295107F80E055
:1003E00060EF412F0E94AB010E94D1011F9108953F
:1003F000CF93DF93EC018881882331F00E94DF01E5
:10040000219688818823D1F7DF91CF91089581E0EB
:1004100061E041E00E946B0081E062E041E00E9407
:100420006B0081E063E041E00E946B0080E064E0EB
:1004300041E00E946B0080E065E041E00E946B00BB
:1004400080E066E041E00E946B0080E067E041E010
:100450000E946B0081E062E040E00E94D9000895B4
:10046000813079F0813028F482E062E00E94480116
:100470000895823009F0089583E063E00E94480106
:10048000089582E067E00E9448010895813089F074
:10049000813030F482E062E040E00E94D9000895AB
:1004A000823009F0089583E063E040E00E94D900C3
:1004B000089582E067E040E00E94D900089581300D
:1004C00089F0813030F482E062E040E00E94D9009F
:1004D0000895823009F0089583E063E041E00E94CE
:1004E000D900089582E067E041E00E94D9000895B4
:1004F00082E062E041E00E946B0082E067E041E060
:100500000E946B0083E063E041E00E946B0082E0A8
:1005100062E040E00E94D90082E067E040E00E9493
:10052000D90083E063E040E00E94D9000895CF93B2
:10053000DF930E947802C0E9D1E080E00E945F0270
:1005400028E833E1CE010197F1F721503040D1F78F
:1005500080E00E94460228E833E1CE010197F1F7DE
:0C05600021503040D1F7E9CFF894FFCFD4
:00000001FF
