:100000000C942A000C945C000C943F000C943F006C
:100010000C943F000C943F000C943F000C943F0064
:100020000C943F000C943F000C943F000C943F0054
:100030000C943F000C943F000C943F000C943F0044
:100040000C943F000C943F000C943F000C943F0034
:100050000C943F0011241FBECFE5D8E0DEBFCDBF1A
:1000600010E0A0E6B0E0E4EEFAE002C005900D92E8
:10007000A03BB107D9F70E9441000C9470050C9485
:100080000000CF93DF930E947C0380E00E949B03DB
:1000900080E063E00E94C1030E94DE03C0E9D1E07A
:1000A00081E00E94340328E833E1CE010197F1F7A3
:1000B00021503040D1F7F4CF1F920F920FB60F921C
:1000C00011242F933F934F935F936F937F938F935D
:1000D0009F93AF93BF93EF93FF9380E00E9434030D
:1000E000FFCF82E060E00E940D05882309F40895A7
:1000F00082E061E00E940D05882311F481E00895FB
:1001000082E062E00E940D05882311F482E00895E8
:1001100082E063E00E940D05882311F483E00895D6
:100120008FEF089582E060E040E00E94FB0382E0F0
:1001300061E040E00E94FB0382E062E040E00E9458
:10014000FB0382E063E040E00E94FB0382E060E0AA
:100150000E94600582E061E00E94600582E062E04A
:100160000E94600582E063E00E94600582E064E036
:1001700041E00E94FB0382E065E041E00E94FB0356
:1001800082E066E041E00E94FB0382E067E041E03C
:100190000E94FB0382E064E040E00E94690482E088
:1001A00065E040E00E94690482E066E040E00E9471
:1001B000690482E067E040E00E94690408951F93AB
:1001C0000E94920082E060E00E940D05882309F001
:1001D0007AC00E947100182F82E064E040E00E9423
:1001E000690482E065E041E00E94690482E066E023
:1001F00041E00E94690482E067E041E00E946904F6
:100200000E947100181709F44DC082E064E041E0DB
:100210000E94690482E065E040E00E94690482E097
:1002200066E041E00E94690482E067E041E00E94EC
:1002300069040E947100181709F45FC082E064E04D
:1002400041E00E94690482E065E041E00E946904A7
:1002500082E066E040E00E94690482E067E041E0FD
:100260000E9469040E947100181709F443C082E0DB
:1002700064E041E00E94690482E065E041E00E94A0
:10028000690482E066E041E00E94690482E067E080
:1002900040E00E9469040E947100181789F583E00C
:1002A00090E002C080E090E0E12FFF27E7FDF095AD
:1002B000EE0FFF1FEE0FFF1FE80FF91FE05AFF4F71
:1002C00080811F91089582E061E00E940D058823DE
:1002D00009F47FCF82E062E00E940D05882309F4D3
:1002E00078CF82E063E00E940D05882309F471CF86
:1002F0008FEFE7CF82E090E0D7CF81E090E0D4CFDE
:100300008FEF9FEFD1CF0F93CF93DF93082F8436DA
:1003100090F581E061E041E00E94690481E062E0E3
:1003200040E00E946904802F6AE00E946405929573
:10033000907F80E060EF492F0E943B05C0EADFE03C
:10034000CE010197F1F781E061E040E00E9469048D
:1003500081E062E041E00E946904802F6AE00E942F
:100360006405482F4295407F80E060EF0E943B0586
:10037000CE010197F1F7DF91CF910F9108959F92F0
:10038000AF92BF92CF92DF92EF92FF920F931F93A3
:10039000CF93DF93982E5A016B01411551056105EA
:1003A0007105C1F0EE24FF248701C0EADFE0892D4A
:1003B0000E948301CE010197F1F783E090E0A0E075
:1003C000B0E0E80EF91E0A1F1B1FEA14FB040C051F
:1003D0001D0568F3DF91CF911F910F91FF90EF9072
:1003E000DF90CF90BF90AF909F90089581E061E043
:1003F00041E00E94FB0381E062E041E00E94FB03D8
:1004000081E063E041E00E94FB0380E064E041E0C2
:100410000E94FB0380E065E041E00E94FB0380E076
:1004200066E041E00E94FB0380E067E041E00E945B
:10043000FB0381E061E040E00E94690481E062E04A
:1004400040E00E946904089581E063E041E00E9479
:10045000690485E08A95F1F781E063E040E00E945D
:10046000690480E49FE10197F1F708951F93182F25
:1004700081E061E041E00E94690480E060EF412F8B
:100480000E943B050E9424021295107F80E060EFDD
:10049000412F0E943B050E9424021F910895CF9393
:1004A000DF93EC018881882331F00E943602219687
:1004B00088818823D1F7DF91CF9108951F93182F5A
:1004C00081E061E040E00E94690480E060EF412F3C
:1004D0000E943B050E9424021295107F80E060EF8D
:1004E000412F0E943B050E9424021F9108958823FA
:1004F00029F4862F80580E945E020895813009F009
:100500000895862F80540E945E020895CF92DF9254
:10051000EF92FF921F93CF93DF9381E061E041E080
:100520000E94FB0381E062E041E00E94FB0381E066
:1005300063E041E00E94FB0380E064E041E00E9450
:10054000FB0380E065E041E00E94FB0380E066E0A1
:1005500041E00E94FB0380E067E041E00E94FB0372
:1005600081E062E040E00E94690480E69AEE019733
:10057000F1F783E00E945E0280E29EE40197F1F7CA
:1005800083E00E945E0280E991E00197F1F783E049
:100590000E945E0282E00E945E0282E00E945E0291
:1005A000EE24FF2490E4C92ED12C8C2D0E945E02F3
:1005B000E701CC0FDD1FCC0FDD1FCC0FDD1FC059B5
:1005C000DF4F10E089910E9436021F5F1830D1F78B
:1005D0000894E11CF11C88E090E0C80ED91E98E058
:1005E000E916F10411F780E060E00E947702DF91E4
:1005F000CF911F91FF90EF90DF90CF9008958130C1
:1006000089F0813028F08230B1F090E0892F089590
:1006100081E060E00E940D0590E08130B9F791E043
:10062000892F089581E064E00E940D0590E08130FB
:10063000B1F3892F089583E062E00E940D0590E0F8
:10064000813069F3892F089581E060E040E00E94E5
:10065000FB0381E064E040E00E94FB0383E062E092
:1006600040E00E94FB030895813079F0813028F446
:1006700082E062E00E94D8040895823009F0089573
:1006800083E063E00E94D804089582E067E00E945E
:10069000D8040895813089F0813030F482E062E03E
:1006A00040E00E9469040895823009F0089583E0D3
:1006B00063E040E00E946904089582E067E040E062
:1006C0000E9469040895813089F0813030F482E01D
:1006D00062E041E00E9469040895823009F00895C3
:1006E00083E063E041E00E946904089582E067E0EE
:1006F00041E00E946904089582E062E041E00E94C6
:10070000FB0382E067E041E00E94FB0383E063E0DB
:1007100041E00E94FB0382E062E040E00E94690445
:1007200082E067E040E00E94690483E063E040E02B
:100730000E9469040895813069F0813020F48BB7FC
:1007400080648BBF0895823009F008958BB7806272
:100750008BBF08958BB780688BBF0895813069F097
:10076000813020F48BB78F7B8BBF0895823009F0E6
:1007700008958BB78F7D8BBF08958BB78F778BBF15
:100780000895813089F0813020F485B7862B85BFAC
:100790000895823009F00895623061F06330D9F72E
:1007A00084B7806484BF089585B7660F660F862B73
:1007B00085BF089584B78F7B84BF08958FB7806805
:1007C0008FBF08958FB78F778FBF08953E9A87E8C0
:1007D00086B9089597B1987F982B97B9369A349B2C
:1007E000FECF349A24B145B1942F80E030E0282B1D
:1007F000392BC9010895813019F1813028F08230F8
:1008000069F1833079F008954423B1F52AB381E08A
:1008100090E002C0880F991F6A95E2F780958223C5
:100820008ABB0895442309F448C021B381E090E0D5
:1008300002C0880F991F6A95E2F7282B21BB089503
:10084000442381F527B381E090E002C0880F991F0F
:100850006A95E2F78095822387BB08954423B9F413
:1008600024B381E090E002C0880F991F6A95E2F7F7
:100870008095822384BB08952AB381E090E002C072
:10088000880F991F6A95E2F7282B2ABB089524B395
:1008900081E090E002C0880F991F6A95E2F7282B4B
:1008A00024BB089527B381E090E002C0880F991F10
:1008B0006A95E2F7282B27BB089521B381E090E0E9
:1008C00002C0880F991F6A95E2F78095822381BB49
:1008D0000895813029F1813028F0823079F1833018
:1008E00081F00895413009F44DC02BB381E090E0D0
:1008F00002C0880F991F6A95E2F7809582238BBB0F
:100900000895413009F449C022B381E090E002C06B
:10091000880F991F6A95E2F78095822382BB08951C
:10092000413029F128B381E090E002C0880F991F7F
:100930006A95E2F78095822388BB0895413061F083
:1009400025B381E090E002C0880F991F6A95E2F715
:100950008095822385BB089525B381E090E002C095
:10096000880F991F6A95E2F7282B25BB089528B3B5
:1009700081E090E002C0880F991F6A95E2F7282B6A
:1009800028BB08952BB381E090E002C0880F991F27
:100990006A95E2F7282B2BBB089522B381E090E003
:1009A00002C0880F991F6A95E2F7282B22BB089591
:1009B0008130E9F0813028F0823021F1833061F01C
:1009C00008952BB381E090E002C0880F991F6A95CB
:1009D000E2F728272BBB089522B381E090E002C004
:1009E000880F991F6A95E2F7282722BB089528B33C
:1009F00081E090E002C0880F991F6A95E2F72827EE
:100A000028BB089525B381E090E002C0880F991FAC
:100A10006A95E2F7282725BB08958130D1F081300F
:100A200030F08230F9F0833059F080E0089589B3D6
:100A300090E002C0959587956A95E2F781700895D8
:100A400080B390E002C0959587956A95E2F7817032
:100A5000089586B390E002C0959587956A95E2F770
:100A60008170089583B390E002C0959587956A954B
:100A7000E2F7817008958130A9F0813028F082304A
:100A8000C1F0833041F008958BB3462360958623EF
:100A9000842B8BBB089582B3462360958623842BD9
:100AA00082BB089588B3462360958623842B88BB38
:100AB000089585B3462360958623842B85BB0895CE
:100AC00041E00E9469040895991B79E004C0991FD0
:100AD000961708F0961B881F7A95C9F78095089598
:040AE000F894FFCFB8
:100AE4003132334134353642373839435330504448
:100AF4000A1F1F1F1F0E0400041F11111111111FC3
:100B0400041F111111111F1F041F1111111F1F1F89
:100B1400041F11111F1F1F1F041F111F1F1F1F1F41
:100B2400041F1F1F1F1F1F1F0000010105051515AE
:00000001FF
